:100000000C944E000C946D000C946D000C946D00DB
:100010000C946D000C946D000C946D000C946D00AC
:100020000C946D000C946D000C946D000C946D009C
:100030000C946D000C946D000C946D000C946D008C
:100040000C946D000C946D000C946D000C946D007C
:100050000C946D000C946D000C946D000C946D006C
:100060000C946D000C946D000C946D000C946D005C
:100070000C946D000C946D000C946D000C946D004C
:100080000C946D000C946D000C946D00080112012D
:100090004B0144015B01540164016B0111241FBE3B
:1000A000CFEFD0E4DEBFCDBF11E0A0E0B1E0ECE5E2
:1000B000F3E000E00BBF02C007900D92A031B10742
:1000C000D9F721E0A0E1B1E001C01D92A331B20750
:1000D000E1F70E9492010C94AC010C94000040E006
:1000E00050E00CC000002F5F3F4F02C020E030E026
:1000F000273063E03607B4F34F5F5F4F4817590767
:10010000ACF308959BB19F7B9BB988B98BB1806894
:100110008BB900008BB18F778BB982E090E00E94A1
:100120006F00089581E00E9482000895813120F4DB
:1001300081580E948200089581550E94820008958E
:1001400084E690E00E946F0088E30E94820086E0CF
:100150000E9482008FE00E94820081E00E94820063
:100160008AE090E00E946F0008959BB190649BB973
:1001700088B98BB180688BB900008BB18F778BB950
:1001800081E090E00E946F000895EF92FF920F933C
:100190001F93CF93DF93182FEB010E9492000EC0A4
:1001A00001E0010F812F0E9496007E018FEFE81A77
:1001B000F80A88810E94B500102FE701888181111B
:1001C000EFCFDF91CF911F910F91FF90EF900895A6
:1001D000CF93C82F8A3019F48DE00E94E8008091F7
:1001E000C00085FFFCCFC093C60080E090E0CF91B7
:1001F000089580B18095209111013091120128302D
:10020000310508F074C0F901EA5BFF4F0C94A301BB
:1002100087E08093100181E090E090931201809339
:10022000110169C0813079F482E090E0909312016D
:100230008093110180911001893009F45CC08F5FB7
:100240008093100158C0823079F484E090E090935C
:1002500012018093110180911001882309F44BC091
:1002600081508093100147C0833039F486E090E0DC
:1002700090931201809311013EC081E090E0909331
:1002800012018093110137C081E090E09093120138
:100290008093110130C0813011F023E030E03093C1
:1002A00012012093110127C081E090E09093120188
:1002B0008093110120C0823011F025E030E03093AE
:1002C00012012093110117C087E090E09093120172
:1002D0008093110110C0833019F486E090E002C0D1
:1002E00081E090E0909312018093110104C010927C
:1002F0001201109211018091110190911201069743
:1003000011F41092100180911001805D80930E0114
:100310006EE071E081E00E94C50084E690E00E94FA
:100320006F00089511B88FEF82B987B918B88AB9EC
:100330001BB80E94A0000E94920081E00E949600DB
:100340000E94F900FDCFEE0FFF1F0024001C0BBE22
:0C0350000790F691E02D0994F894FFCF7F
:10035C000000000200000000E80000000000300077
:00000001FF
