:100000000C9446000C9465000C9465000C946500FB
:100010000C9465000C9465000C9465000C946500CC
:100020000C9465000C9465000C9465000C946500BC
:100030000C9465000C941C010C9465000C946500F4
:100040000C9465000C9465000C9465000C9465009C
:100050000C9465000C9465000C9465000C9465008C
:100060000C9465000C9465000C9465000C9465007C
:100070000C9465000C9465000C9465000C9465006C
:100080000C9465000C9465000C94650011241FBE4F
:10009000CFEFD0E4DEBFCDBF11E0A0E0B1E0E8EAF1
:1000A000F4E000E00BBF02C007900D92A631B1074B
:1000B000D9F721E0A6E1B1E001C01D92AE31B2074F
:1000C000E1F70E9431020C9452020C94000040E0CF
:1000D00050E00CC000002F5F3F4F02C020E030E036
:1000E000273063E03607B4F34F5F5F4F4817590777
:1000F000ACF308959BB19F7B9BB988B98BB18068A5
:100100008BB900008BB18F778BB982E090E00E94B1
:100110006700089581E00E947A000895813120F4FB
:1001200081580E947A00089581550E947A000895AE
:1001300084E690E00E94670088E30E947A0086E0EF
:100140000E947A008FE00E947A0081E00E947A008B
:100150008AE090E00E94670008959BB190649BB98B
:1001600088B98BB180688BB900008BB18F778BB960
:1001700081E090E00E9467000895EF92FF920F9354
:100180001F93CF93DF93182FEB010E948A000EC0BC
:1001900001E0010F812F0E948E007E018FEFE81A8F
:1001A000F80A88810E94AD00102FE7018881811133
:1001B000EFCFDF91CF911F910F91FF90EF900895B6
:1001C000CF93C82F8A3019F48DE00E94E00080910F
:1001D000C00085FFFCCFC093C60080E090E0CF91C7
:1001E00008958BE0809381008DE790E090938900E3
:1001F0008093880082E080936F00109285001092B7
:1002000084008091010190910201A0910301B091BD
:1002100004018093170190931801A0931901B093E2
:100220001A018FB780688FBF0895109281000895DA
:1002300081E080931B0108951F920F920FB60F92D9
:1002400011240BB60F922F933F934F935F936F93AD
:100250007F938F939F93AF93BF93EF93FF9380917F
:10026000170190911801A0911901B0911A010197FD
:10027000A109B1098093170190931801A093190166
:10028000B0931A01892B8A2B8B2B91F40E941801B1
:100290008091010190910201A0910301B0910401AC
:1002A0008093170190931801A0931901B0931A013C
:1002B000FF91EF91BF91AF919F918F917F916F913E
:1002C0005F914F913F912F910F900BBE0F900FBEFA
:1002D0000F901F9018956093010170930201809315
:1002E00003019093040160931701709318018093A8
:1002F000190190931A01089580B1282F20958091BB
:100300001C0190911D0182309105D1F128F40097D4
:1003100059F0019799F06FC08330910509F44AC0F4
:10032000049709F461C067C087E08093160181E0FB
:1003300090E090931D0180931C0161C0213039F43D
:1003400082E090E090931D0180931C0158C0223000
:1003500039F483E090E090931D0180931C014FC01D
:10036000233039F484E090E090931D0180931C01C8
:1003700046C081E090E090931D0180931C013FC036
:10038000213071F480910001882351F022E030E0A7
:1003900030931D0120931C018150809300012FC0D8
:1003A0008AE08093000181E090E090931D018093AA
:1003B0001C0125C0223071F480910001882351F086
:1003C00023E030E030931D0120931C018150809385
:1003D000000115C08AE08093000181E090E09093D5
:1003E0001D0180931C010BC081E090E090931D01E2
:1003F00080931C0104C010921D0110921C01809179
:100400001C0190911D018330910531F084309105DC
:10041000D9F00297D9F40CC0809116018823B1F06D
:10042000909100019A3091F48150809316010EC092
:1004300080911601893051F0909100019A3031F489
:100440008F5F8093160102C01092160180911601F1
:10045000805D8093130163E171E081E00E94BD0043
:10046000089511B88FEF82B984B915B887B918B853
:100470008AB91BB864E670E080E090E00E946B01EE
:100480000E94F1000E9498000E948A0081E00E9470
:100490008E0080911B018823E1F30E947C01109261
:0804A0001B01F7CFF894FFCF18
:1004A8000A010000000000000200000000E0000057
:0604B8000000003000000E
:00000001FF
